:020000020000FC
:0200000045C0F9
:040040000C946200BA
:10008C0000E10EBF0FEF0DBF01E007BF07E003BF9C
:10009C0040E000E108BB1127002778943091630001
:1000AC00313021F0323029F00C94540041E00C94A2
:1000BC00540040E00C9454002FB713951B3209F5F3
:1000CC001127403011F0413071F000E002BB08B351
:1000DC00003031F0003109F0189500E008BB18959C
:1000EC0000E108BB189500E008BB02B3003419F41A
:1000FC00003821F4189500E402BB189500E802BB07
:06010C0018952FBF1895A5
:00000001FF
