:1000000045C0000053C0000051C000004FC00000B8
:100010004DC000004BC0000049C0000047C00000B8
:1000200045C0000043C0000041C000003FC00000C8
:100030003DC000003BC0000039C0000037C00000D8
:100040004FC0000033C0000031C000002FC00000CE
:100050002DC000002BC0000029C0000027C00000F8
:1000600025C0000023C0000021C000001FC0000008
:100070001DC000001BC0000019C0000017C0000018
:1000800015C0000013C0000011C0000011241FBEE5
:10009000CFEFD0E1DEBFCDBF21E0A0E0B1E001C0F5
:1000A0001D92A430B207E1F702D06BC0A9CF7894BB
:1000B00081E087BF87E083BFE3E6F0E021E030E046
:1000C0008081823029F43093010120930001F8CF20
:1000D00080818130A9F71092010110920001F0CFC8
:1000E0001F920F920FB60F9211248F939F938091BE
:1000F0000201909103010196909303018093020104
:100100008091000190910101892BB9F412BA80917C
:100110000201909103018B976CF1109203011092F0
:10012000020188B3803111F418BA24C0109203017F
:100130001092020180E188BB1DC080910001909166
:1001400001010197B9F418BA80910201909103015D
:100150008B9784F082B3803439F4109203011092AB
:10016000020180E882BB06C01092030110920201D6
:1001700080E482BB9F918F910F900FBE0F901F90D4
:060180001895F894FFCF72
:00000001FF
